S01200005350495F4472697665722E737265635B
S11300000C942A000C943C000C943C000C943C008E
S11300100C943C000C943C000C943C000C943C006C
S11300200C943C000C943C000C943C000C943C005C
S11300300C947C030C943C000C943C000C943C0009
S11300400C943C000C943C000C943C000C943C003C
S11300500C943C0011241FBECFE5D8E0DEBFCDBF19
S113006020E0A0E6B0E001C01D92A936B207E1F796
S11300700E94C7000C94DE030C9400001F93CF93DE
S1130080DF93EC01162F0E9495030E94B30388307E
S113009009F5CE0188279770880F892F881F990B3F
S11300A09195806A0E949E030E94B3038831A1F453
S11300B08C2F0E949E030E94B303883279F4812F0F
S11300C00E949E030E94B303883251F40E949B0352
S11300D080E007C081E005C081E003C081E001C089
S11300E081E0DF91CF911F910895EF92FF920F93DA
S11300F01F93CF93DF93EC018B010E9495030E9421
S1130100B303883091F57E01EE2487E0F822EE0CEB
S1130110EF2CEE1CFF08F1948E2D806A0E949E0342
S11301200E94B303883119F58C2F0E949E030E940C
S1130130B3038832F1F40E9495030E94B303803123
S1130140D1F48E2D816A0E949E030E94B3038034F1
S1130150A1F40E94AC03F80180830E94B3038835A4
S113016071F40E949B0380E00BC081E009C081E030
S113017007C081E005C081E003C081E001C081E0E7
S1130180DF91CF911F910F91FF90EF900895CF933E
S1130190DF93CDB7DEB72E970FB6F894DEBF0FBE50
S11301A0CDBF1C8219821F821D8281E08A831B823B
S11301B0CE0101960E9431031886198688988C9A7C
S11301C08D9AFE013A9685E0DF011D928A95E9F742
S11301D00E948F0383E08093620080E48093650033
S11301E0109261000E94CB0283E18093640082E05C
S11301F08093600087E1809363000E94E20200E044
S113020010E0552453943E01BFE06B0E711C0F2E79
S1130210F4E62F2EF02D6894AA24A4F86894BB2445
S1130220B5F8412C312C80EF9FEF0E94B6037C017E
S1130230809B0BC06EEB8FEF9FEF0E943E00EFE1BF
S1130240FEE43197F1F700C00000011118C0BE01AF
S1130250685F7F4F8FEF9FEF0E9475008FE19EE4F0
S11302600197F1F700C0000088850E946103182FF0
S1130270AFE1BEE41197F1F700C00000052D1E3474
S113028059F460E08FEF9FEF0E943E00EFE1FEE43F
S11302903197F1F700C0000088850E946103182F90
S11302A08F3281F580E00E9461038FE19EE4019723
S11302B0F1F700C0000080E00E946103AFE1BEE4FA
S11302C01197F1F700C00000E42CF32CBE01685F25
S11302D07F4FC7010E94750088850E946103C70192
S11302E087709927892B31F4E3FC04C088858F3FFC
S11302F009F499CFBFEFEB1AFB0AE114E4E0FE0620
S113030029F791CF823639F482B38A2582BB82B32E
S11303108B2582BB88CF833619F49498959883CF24
S1130320843619F5E114F4E0FF06C8F480E00E9475
S11303306103182F682FC7010E943E008FE19EE4DD
S11303400197F1F700C000009FEFE91AF90AE114E0
S1130350A4E0FA0621F0113011F01E3439F7B70188
S113036080EF9FEF0E94BC035ECF853609F069C021
S113037080E00E946103853409F055CFFE013A966E
S11303807F0180E00E946103D7018D937D01A61552
S1130390B705B9F72E858D8590E0AC01440F551F44
S11303A0880F991F880F991F880F991F840F951F15
S11303B0820F911D2C85229E800D911D11242B8569
S11303C0E8EEF3E02E9F70012F9FF00C11248E0DA8
S11303D09F1D2A8540E157E2249F7001259FF00C60
S11303E01124E80EF91E470150E1850E911CE81412
S11303F0F90408F018CF670180E00E946103182F08
S1130400682FC6010E943E008FE19EE40197F1F738
S113041000C000009FEFC91AD90AC814D90420F4F7
S1130420113011F01E3441F7BE01675F7F4FC701E1
S11304300E947500AFEFEA1AFA0AE814F904A0F36F
S1130440F2CE863609F069C080E00E9461038534EB
S113045009F0E9CEFE013A967F0180E00E94610333
S1130460D7018D937D01A615B705B9F72E858D8526
S113047090E0AC01440F551F880F991F880F991FF6
S1130480880F991F840F951F820F911D2C85229E22
S1130490800D911D11242B85E8EEF3E02E9F700151
S11304A02F9FF00C11248E0D9F1D2A8540E157E2E9
S11304B0249F7001259FF00C1124E80EF91E4701BA
S11304C050E1850E911CE814F90408F0ACCE6701E4
S11304D080E00E946103182F682FC6010E943E002D
S11304E08FE19EE40197F1F700C000009FEFC91A65
S11304F0D90AC814D90420F4113011F01E3441F77C
S1130500BE01675F7F4FC7010E947500AFEFEA1A13
S1130510FA0AE814F904A0F386CE8736E9F40E94B7
S1130520F9020E941503809161000E946103809189
S113053065000E946103809162000E9461038091C2
S113054064000E946103809160000E9461038091B5
S113055063000E94610367CE883609F064CE689414
S1130560EE24E5F8F12C6FEFC7010E943E00EFE1A5
S1130570FEE43197F1F700C00000FFEFEF1AFF0A25
S1130580E11444E0F40679F760E270E080EF9FEF55
S11305900E94BC0348CE0E94950380ED0E949E03F6
S11305A080E00E949E03809161000E949E038091DE
S11305B065000E949E03809162000E949E030E9437
S11305C09B0308950E94950380ED0E949E0384E09E
S11305D00E949E03809164000E949E0380916000AB
S11305E00E949E03809163000E949E030E949B03CD
S11305F008950E94950380ED0E949E0380E00E946E
S11306009E030E94950381ED0E949E030E94A50310
S1130610809361000E94A503809365000E94AC034F
S1130620809362000E949B0308950E94950380EDCD
S11306300E949E0384E00E949E030E94950381ED24
S11306400E949E030E94A503809364000E94A50358
S1130650809360000E94AC03809363000E949B031C
S11306600895FC0180E487BB2DB1408130E8439FAD
S1130670C0011124918130E4939FA0011124482BDF
S1130680422B928180E2989F90011124242B938124
S113069030E1939FC0011124822B9481990F990F0B
S11306A0892B8DB99EB18681892B8EB98081813049
S11306B021F4789480936800089582E08093680020
S11306C0089590916700913019F48FB98FB108950E
S11306D0923029F48FB9779BFECF8FB10895909112
S11306E06800913021F4809366008FB108958FB92A
S11306F0779BFECF8FB108951F920F920FB60F9282
S113070011248F9380916800813019F480916600E0
S11307108FB98F910F900FBE0F901F90189511B83D
S11307208CE080B984E086BF089584EA86BF06B66B
S113073007FEFDCF089584E986BF089583B984E850
S113074086BF06B607FEFDCF089584EC86BF06B6C5
S113075007FEFDCF83B1089584E886BF06B607FE81
S1130760FDCF83B1089581B1887F0895A8E1B0E0F9
S113077042E050E00C94C3030E94D103272F0C9451
S1130780D203DC01CB01FC01E199FECF06C0FFBB23
S1130790EEBBE09A31960DB20D9241505040B8F73D
S11307A00895262FE199FECF9FBB8EBB2DBB0FB6BC
S11307B0F894E29AE19A0FBE01960895F894FFCF57
S9030000FC
